:100000000C9434000C9451000C9451000C94510049
:100010000C9451000C9451000C9451000C9451001C
:100020000C9451000C9451000C9451000C9451000C
:100030000C9451000C9451000C9451000C945100FC
:100040000C9451000C9451000C9451000C945100EC
:100050000C9451000C9451000C9451000C945100DC
:100060000C9451000C94510011241FBECFEFD8E026
:10007000DEBFCDBF11E0A0E0B1E0E2EEF5E002C0EE
:1000800005900D92A831B107D9F721E0A8E1B1E0C0
:1000900001C01D92AC31B207E1F70E94B5000C948B
:1000A000EF020C940000FC012191222351F19BB13D
:1000B0009F70207F922B9BB9589A599A85E08A9518
:1000C000F1F7000059988FE193E00197F1F700C034
:1000D00000009BB1DF0111972C9180E12802900173
:1000E00011249F70922B9BB9599A95E09A95F1F73C
:1000F000000059988FE39FE10197F1F700C00000DD
:10010000D3CF08959BB19F70282F207F922B9BB94E
:100110005898599A45E04A95F1F700005998EFE14F
:10012000F3E03197F1F700C000009BB19F70F0E160
:100130008F9F90011124892F822B8BB9599A45E00A
:100140004A95F1F7000059988FE39FE10197F1F785
:1001500000C00000089581580E9482008FE891E05D
:100160000197F1F700C000000895CF93DF9300D00E
:1001700000D0CDB7DEB78FEF8AB98FE59AEE019741
:10018000F1F700C0000082E00E94820088E20E9435
:1001900082008CE00E94820086E00E94820081E062
:1001A0000E9482008FE39FE10197F1F700C00000F9
:1001B0009FEF21EE44E0915020404040E1F700C025
:1001C0000000389A87B18C6387B9529A12E0409A3E
:1001D00080E58A95F1F7409880EC97E2A9E0B0E0DD
:1001E00031990CC00197A109B109D1F781E00E94B2
:1001F000AB0080E191E00E945300E9CF10928000B3
:1002000010938100109285001092840080EC97E298
:10021000A9E0B0E0319B69C0209184003091850055
:1002200021363A4E08F061C00197A109B10991F752
:100230008EEF9FEFBC0190E080E00E94F40126E980
:1002400033E44BE05DE30E945A0220E030E040E0FE
:100250005FE30E945A020E94BE0170931B016093EB
:100260001A0120911801309119012617370761F002
:1002700081E00E9482008FE39FE10197F1F700C0C7
:10028000000080E80E94820081E00E94AB0080E0D4
:1002900091E00E9453008CE00E94AB004AE0BE0156
:1002A0006F5F7F4F80911A0190911B010E9489011D
:1002B000CE0101960E9453008EE00E94AB008CE0BC
:1002C00091E00E94530080911A0190911B0190933C
:1002D0001901809318019FEF26E741E091502040DB
:1002E0004040E1F700C0000072CF809184009091FF
:1002F0008500B0E0A0E01092810081362AEE9207DE
:10030000A105B10508F094CFB695A7959795879567
:1003100091CFBB274A3031F4992322F4BDE2909566
:1003200081959F4F0C949501BB27FB015527AA2768
:10033000880F991FAA1FA41710F0A41B8395505172
:10034000B9F7A05DAA3308F0A95DA193009779F7EA
:10035000B111B1931192CB010C94AE01DC01FC01FF
:10036000672F71917723E1F7329704C07C916D93E9
:1003700070836291AE17BF07C8F308950E94C5014C
:100380006894B1110C94540208950E94390288F0C7
:100390009F5798F0B92F9927B751B0F0E1F0660F49
:1003A000771F881F991F1AF0BA95C9F714C0B1308A
:1003B00091F00E945302B1E008950C945302672F0C
:1003C000782F8827B85F39F0B93FCCF386957795B9
:1003D0006795B395D9F73EF49095809570956195A2
:1003E0007F4F8F4F9F4F0895E89409C097FB3EF4CD
:1003F00090958095709561957F4F8F4F9F4F992372
:10040000A9F0F92F96E9BB279395F69587957795EF
:100410006795B795F111F8CFFAF4BB0F11F460FFAF
:100420001BC06F5F7F4F8F4F9F4F16C0882311F007
:1004300096E911C0772321F09EE8872F762F05C01B
:10044000662371F096E8862F70E060E02AF09A95B6
:10045000660F771F881FDAF7880F9695879597F9AB
:10046000089557FD9058440F551F59F05F3F71F0A4
:100470004795880F97FB991F61F09F3F79F087950B
:100480000895121613061406551FF2CF4695F1DF94
:1004900008C0161617061806991FF1CF8695710524
:1004A000610508940895E894BB2766277727CB0158
:1004B00097F908950E946D020C94DE020E94D0020A
:1004C00038F00E94D70220F0952311F00C94C70257
:1004D0000C94CD0211240C9454020E94310270F34A
:1004E000959FC1F3950F50E0551F629FF001729FD9
:1004F000BB27F00DB11D639FAA27F00DB11DAA1FE8
:10050000649F6627B00DA11D661F829F2227B00D34
:10051000A11D621F739FB00DA11D621F839FA00DBF
:10052000611D221F749F3327A00D611D231F849F0F
:10053000600D211D822F762F6A2F11249F57504066
:100540009AF0F1F088234AF0EE0FFF1FBB1F661FE1
:10055000771F881F91505040A9F79E3F510580F0AA
:100560000C94C7020C9454025F3FE4F3983ED4F31A
:10057000869577956795B795F795E7959F5FC1F74E
:10058000FE2B880F911D9695879597F9089597F9F9
:100590009F6780E870E060E008959FEF80EC089529
:1005A00000240A9416161706180609060895002452
:1005B0000A9412161306140605060895092E0394CC
:1005C000000C11F4882352F0BB0F40F4BF2B11F440
:1005D00060FF04C06F5F7F4F8F4F9F4F0895F89467
:0205E000FFCF4B
:1005E20044697374616E6365203D200020636D0071
:0805F2004572726F72210000D6
:00000001FF
